:100000000C9435000C945D000C945D000C945D0024
:100010000C945D000C945D000C945D000C945D00EC
:100020000C945D000C945D000C945D000C945D00DC
:100030000C945D000C945D000C945D000C945D00CC
:100040000C9489010C945D000C94F9010C94D3017B
:100050000C945D000C945D000C945D000C945D00AC
:100060000C945D000C945D00E50211241FBECFEFDF
:10007000D8E0DEBFCDBF11E0A0E0B1E0E4E3F6E000
:1000800002C005900D92AA33B107D9F721E0AAE387
:10009000B1E001C01D92A23EB207E1F710E0C5E356
:1000A000D0E004C02197FE010E941203C433D1079F
:1000B000C9F70E942B020C9418030C940000AF9215
:1000C000BF92CF92DF92EF92FF920F931F93CF9345
:1000D000DF936C017B018B01040F151FEB015E01A7
:1000E000AE18BF08C017D10759F06991D601ED913C
:1000F000FC910190F081E02DC6010995892B79F7DB
:10010000C501DF91CF911F910F91FF90EF90DF908C
:10011000CF90BF90AF900895FC01538D448D252F53
:1001200030E0842F90E0821B930B541710F0CF9691
:10013000089501970895FC01918D828D981761F0C3
:10014000A28DAE0FBF2FB11D5D968C91928D9F5FDA
:100150009F73928F90E008958FEF9FEF0895FC01B9
:10016000918D828D981731F0828DE80FF11D858D6C
:1001700090E008958FEF9FEF0895FC01918D228DFF
:10018000892F90E0805C9F4F821B91098F73992784
:10019000089585E491E00E94BD0021E0892B09F4D7
:1001A00020E0822F089580E090E0892B29F00E94C2
:1001B000C90081110C9400000895FC01A48DA80FC2
:1001C000B92FB11DA35ABF4F2C91848D90E0019699
:1001D0008F739927848FA689B7892C93A089B189B9
:1001E0008C91837080648C93938D848D981306C05A
:1001F0000288F389E02D80818F7D80830895EF92BE
:10020000FF920F931F93CF93DF93EC0181E0888FD0
:100210009B8D8C8D98131AC0E889F989808185FFA0
:1002200015C09FB7F894EE89FF896083E889F98942
:1002300080818370806480839FBF81E090E0DF9144
:10024000CF911F910F91FF90EF900895F62E0B8D97
:1002500010E00F5F1F4F0F731127E02E8C8D8E1152
:100260000CC00FB607FCFACFE889F989808185FFB9
:10027000F5CFCE010E94DD00F1CFEB8DEC0FFD2F0D
:10028000F11DE35AFF4FF0829FB7F8940B8FEA8974
:10029000FB8980818062CFCFCF93DF93EC01888D83
:1002A0008823B9F0AA89BB89E889F9898C9185FDF1
:1002B00003C0808186FD0DC00FB607FCF7CF8C917F
:1002C00085FFF2CF808185FFEDCFCE010E94DD005A
:1002D000E9CFDF91CF910895CF93DF93FC01019097
:1002E0000020E9F73197AF01481B590BBC0185E4A9
:1002F00091E00E945F00EC0142E050E062E171E0B9
:1003000085E491E00E945F008C0F9D1FDF91CF91EB
:1003100008951F920F920FB60F9211242F933F93BF
:100320008F939F93AF93BF9380914101909142012E
:10033000A0914301B09144013091400123E0230F8B
:100340002D3758F50196A11DB11D209340018093D2
:10035000410190934201A0934301B09344018091E5
:100360003C0190913D01A0913E01B0913F01019669
:10037000A11DB11D80933C0190933D01A0933E01CE
:10038000B0933F01BF91AF919F918F913F912F917A
:100390000F900FBE0F901F90189526E8230F02961E
:1003A000A11DB11DD2CF1F920F920FB60F92112433
:1003B0002F933F934F935F936F937F938F939F936D
:1003C000AF93BF93EF93FF9385E491E00E94DD002C
:1003D000FF91EF91BF91AF919F918F917F916F911D
:1003E0005F914F913F912F910F900FBE0F901F90F3
:1003F00018951F920F920FB60F9211242F938F937F
:100400009F93EF93FF93E0915501F0915601808106
:10041000E0915B01F0915C0182FD1BC090818091B5
:100420005E018F5F8F7320915F01821741F0E09131
:100430005E01F0E0EB5BFE4F958F80935E01FF91D4
:10044000EF919F918F912F910F900FBE0F901F9062
:1004500018958081F4CF789484B5826084BD84B58A
:10046000816084BD85B5826085BD85B5816085BDAF
:1004700080916E00816080936E0010928100809167
:1004800081008260809381008091810081608093EF
:100490008100809180008160809380008091B10014
:1004A00084608093B1008091B00081608093B0003F
:1004B00080917A00846080937A0080917A008260D3
:1004C00080937A0080917A00816080937A00809195
:1004D0007A00806880937A001092C100E091550103
:1004E000F091560182E08083E0915101F091520138
:1004F0001082E0915301F091540183E080831092C7
:100500005D01E0915901F0915A0186E08083E0910C
:100510005701F0915801808180618083E0915701FB
:10052000F0915801808188608083E0915701F091BB
:100530005801808180688083E0915701F0915801D3
:1005400080818F7D8083C0E0D0E085E491E00E94CF
:10055000BD001816190684F585E491E00E949B0001
:1005600090933B0180933A018136910521F485E116
:1005700091E00E946C0180913A0190913B0182369A
:10058000910521F48EE191E00E946C0180913A0185
:1005900090913B018336910521F487E291E00E941E
:1005A0006C0180913A0190913B018436910521F4D0
:1005B00080E391E00E946C01209739F20E94C9000B
:1005C000882319F20E940000C0CFE5E4F1E0138215
:1005D000128288EE93E0A0E0B0E084839583A68346
:1005E000B78384E091E09183808385EC90E09587E8
:1005F000848784EC90E09787868780EC90E0918BED
:10060000808B81EC90E0938B828B82EC90E0958BD9
:10061000848B86EC90E0978B868B118E128E138ED6
:10062000148E0895EE0FFF1F0590F491E02D0994AC
:04063000F894FFCF6C
:1006340000000000FF005F008C004C01BD009B0027
:10064400AF000D0A004C65747465722041004C655E
:10065400747465722042004C6574746572204300A2
:0A0664004C657474657220440000B8
:00000001FF
